{
  "contractName": "SupportsInterface",
  "abi": [
    {
      "inputs": [],
      "stateMutability": "nonpayable",
      "type": "constructor"
    },
    {
      "inputs": [
        {
          "internalType": "bytes4",
          "name": "_interfaceID",
          "type": "bytes4"
        }
      ],
      "name": "supportsInterface",
      "outputs": [
        {
          "internalType": "bool",
          "name": "",
          "type": "bool"
        }
      ],
      "stateMutability": "view",
      "type": "function"
    }
  ],
  "bytecode": "0x608060405234801561001057600080fd5b5060016000806301ffc9a760e01b7bffffffffffffffffffffffffffffffffffffffffffffffffffffffff1916815260200190815260200160002060006101000a81548160ff0219169083151502179055506101bd806100716000396000f3fe608060405234801561001057600080fd5b506004361061002b5760003560e01c806301ffc9a714610030575b600080fd5b61004a60048036038101906100459190610124565b610060565b604051610057919061016c565b60405180910390f35b6000806000837bffffffffffffffffffffffffffffffffffffffffffffffffffffffff19167bffffffffffffffffffffffffffffffffffffffffffffffffffffffff1916815260200190815260200160002060009054906101000a900460ff169050919050565b600080fd5b60007fffffffff0000000000000000000000000000000000000000000000000000000082169050919050565b610101816100cc565b811461010c57600080fd5b50565b60008135905061011e816100f8565b92915050565b60006020828403121561013a576101396100c7565b5b60006101488482850161010f565b91505092915050565b60008115159050919050565b61016681610151565b82525050565b6000602082019050610181600083018461015d565b9291505056fea2646970667358221220ad56a1ed8250bfcc44d8b8f5c3ebf919fc6022768c120b96a874f8a2a35255ea64736f6c63430008090033",
  "immutableReferences": {},
  "source": "// SPDX-License-Identifier: MIT\npragma solidity 0.8.9;\n\nimport \"./erc165.sol\";\n\n/**\n * @dev Implementation of standard for detect smart contract interfaces.\n */\ncontract SupportsInterface is\n  ERC165\n{\n\n  /**\n   * @dev Mapping of supported intefraces. You must not set element 0xffffffff to true.\n   */\n  mapping(bytes4 => bool) internal supportedInterfaces;\n\n  /**\n   * @dev Contract constructor.\n   */\n  constructor()\n  {\n    supportedInterfaces[0x01ffc9a7] = true; // ERC165\n  }\n\n  /**\n   * @dev Function to check which interfaces are suported by this contract.\n   * @param _interfaceID Id of the interface.\n   * @return True if _interfaceID is supported, false otherwise.\n   */\n  function supportsInterface(\n    bytes4 _interfaceID\n  )\n    external\n    override\n    view\n    returns (bool)\n  {\n    return supportedInterfaces[_interfaceID];\n  }\n\n}\n",
  "sourcePath": "/Users/alex/Documents/IRSTRAT/primereact/contracts/utils/supports-interface.sol",
  "compiler": {
    "name": "solc",
    "version": "0.8.9+commit.e5eed63a.Emscripten.clang"
  },
  "schemaVersion": "3.4.1",
  "updatedAt": "2021-10-20T13:53:36.078Z",
  "devdoc": {
    "details": "Implementation of standard for detect smart contract interfaces.",
    "kind": "dev",
    "methods": {
      "constructor": {
        "details": "Contract constructor."
      },
      "supportsInterface(bytes4)": {
        "details": "Function to check which interfaces are suported by this contract.",
        "params": {
          "_interfaceID": "Id of the interface."
        },
        "returns": {
          "_0": "True if _interfaceID is supported, false otherwise."
        }
      }
    },
    "stateVariables": {
      "supportedInterfaces": {
        "details": "Mapping of supported intefraces. You must not set element 0xffffffff to true."
      }
    },
    "version": 1
  },
  "userdoc": {
    "kind": "user",
    "methods": {},
    "version": 1
  }
}