{
  "contractName": "Voting",
  "abi": [
    {
      "inputs": [],
      "payable": false,
      "stateMutability": "nonpayable",
      "type": "constructor"
    },
    {
      "constant": true,
      "inputs": [],
      "name": "candidatecount",
      "outputs": [
        {
          "internalType": "uint256",
          "name": "",
          "type": "uint256"
        }
      ],
      "payable": false,
      "stateMutability": "view",
      "type": "function"
    },
    {
      "constant": true,
      "inputs": [
        {
          "internalType": "uint256",
          "name": "",
          "type": "uint256"
        }
      ],
      "name": "candidates",
      "outputs": [
        {
          "internalType": "uint256",
          "name": "id",
          "type": "uint256"
        },
        {
          "internalType": "string",
          "name": "name",
          "type": "string"
        },
        {
          "internalType": "uint256",
          "name": "voteCount",
          "type": "uint256"
        }
      ],
      "payable": false,
      "stateMutability": "view",
      "type": "function"
    },
    {
      "constant": true,
      "inputs": [
        {
          "internalType": "address",
          "name": "",
          "type": "address"
        }
      ],
      "name": "voter",
      "outputs": [
        {
          "internalType": "bool",
          "name": "",
          "type": "bool"
        }
      ],
      "payable": false,
      "stateMutability": "view",
      "type": "function"
    },
    {
      "constant": false,
      "inputs": [
        {
          "internalType": "uint256",
          "name": "_candidateid",
          "type": "uint256"
        }
      ],
      "name": "vote",
      "outputs": [],
      "payable": false,
      "stateMutability": "nonpayable",
      "type": "function"
    },
    {
      "constant": true,
      "inputs": [
        {
          "internalType": "uint256",
          "name": "_candidateid",
          "type": "uint256"
        }
      ],
      "name": "getResult",
      "outputs": [
        {
          "internalType": "uint256",
          "name": "",
          "type": "uint256"
        }
      ],
      "payable": false,
      "stateMutability": "view",
      "type": "function"
    }
  ],
  "bytecode": "0x608060405234801561001057600080fd5b506100556040518060400160405280600681526020017f42696464656e000000000000000000000000000000000000000000000000000081525061009e60201b60201c565b6100996040518060400160405280600581526020017f5472756d7000000000000000000000000000000000000000000000000000000081525061009e60201b60201c565b6101be565b6001600081548092919060010191905055506040518060600160405280600154815260200182815260200160008152506000806001548152602001908152602001600020600082015181600001556020820151816001019080519060200190610108929190610119565b506040820151816002015590505050565b828054600181600116156101000203166002900490600052602060002090601f016020900481019282601f1061015a57805160ff1916838001178555610188565b82800160010185558215610188579182015b8281111561018757825182559160200191906001019061016c565b5b5090506101959190610199565b5090565b6101bb91905b808211156101b757600081600090555060010161019f565b5090565b90565b61040e806101cd6000396000f3fe608060405234801561001057600080fd5b50600436106100575760003560e01c80630121b93f1461005c5780633477ee2e1461008a578063995e43391461013f578063af0dbe5414610181578063c8b94d69146101dd575b600080fd5b6100886004803603602081101561007257600080fd5b81019080803590602001909291905050506101fb565b005b6100b6600480360360208110156100a057600080fd5b81019080803590602001909291905050506102d2565b6040518084815260200180602001838152602001828103825284818151815260200191508051906020019080838360005b838110156101025780820151818401526020810190506100e7565b50505050905090810190601f16801561012f5780820380516001836020036101000a031916815260200191505b5094505050505060405180910390f35b61016b6004803603602081101561015557600080fd5b8101908080359060200190929190505050610394565b6040518082815260200191505060405180910390f35b6101c36004803603602081101561019757600080fd5b81019080803573ffffffffffffffffffffffffffffffffffffffff1690602001909291905050506103b3565b604051808215151515815260200191505060405180910390f35b6101e56103d3565b6040518082815260200191505060405180910390f35b600260003373ffffffffffffffffffffffffffffffffffffffff1673ffffffffffffffffffffffffffffffffffffffff16815260200190815260200160002060009054906101000a900460ff161561025257600080fd5b6001600260003373ffffffffffffffffffffffffffffffffffffffff1673ffffffffffffffffffffffffffffffffffffffff16815260200190815260200160002060006101000a81548160ff0219169083151502179055506000808281526020019081526020016000206002016000815480929190600101919050555050565b6000602052806000526040600020600091509050806000015490806001018054600181600116156101000203166002900480601f0160208091040260200160405190810160405280929190818152602001828054600181600116156101000203166002900480156103845780601f1061035957610100808354040283529160200191610384565b820191906000526020600020905b81548152906001019060200180831161036757829003601f168201915b5050505050908060020154905083565b6000806000838152602001908152602001600020600201549050919050565b60026020528060005260406000206000915054906101000a900460ff1681565b6001548156fea265627a7a72315820f8705095fd25b097e050d4cda398335a7d49adc04110f900c1bf224ab57084b664736f6c63430005100032",
  "source": "pragma solidity >=0.4.24 <0.9.0; //declarando la version de compatibilidad del compilador\n\n//contrato inteligente para llevar a cabo una votacion\ncontract Voting{\n\n    //estructura de los candidatos\n    struct Candidate{\n        uint id;  // id del candidato que es el que usara el votante para votar\n        string name;  // nombre del candidato\n        uint voteCount; //cantidad de votos recibidos\n    }\n    \n    mapping (uint => Candidate) public candidates; //listado de candidatos\n    uint public candidatecount;   //cantidad de candidatos\n    mapping (address => bool) public voter;  //listado de direcciones que han votado\n    \n    //agregamos los candidatos en el constructor \n    constructor() public{\n        addCandidate(\"Bidden\");//   candidato 1\n        addCandidate(\"Trump\");//    candidato 2\n    }\n    \n    //funcion de crear los candidatos, la creamos privada para solo usarla internamente asi no cualquiera puede crear candidatos\n    function addCandidate(string memory _name) private{\n        candidatecount++;//aumentamos la cantidad de candidatos\n        candidates[candidatecount] = Candidate(candidatecount, _name, 0); //guardamos al candidato en el listado\n    }\n    \n    //funcion clave del contrato usada por los votantes para votar, \n    function vote(uint _candidateid) public{\n        require(!voter[msg.sender]); //Antes de continuar verificar que el votante no ha votado aun\n        voter[msg.sender] = true; //marcar que ya voto\n        candidates[_candidateid].voteCount ++; //aumentar la cantidad de votos del candidato seleccionado por el votante\n    }\n\n    //funcion para ver la cantidad de votos de un candidato como un dato publico al que puede acceder todo el mundo\n    function getResult(uint _candidateid)public view returns(uint){\n        return candidates[_candidateid].voteCount; //retornando la cantidad de votos de un candidato\n    }\n}",
  "sourcePath": "/Users/alex/Documents/IRSTRAT/primereact/contracts/Voting.sol",
  "compiler": {
    "name": "solc",
    "version": "0.5.16+commit.9c3226ce.Emscripten.clang"
  },
  "schemaVersion": "3.4.1",
  "updatedAt": "2021-10-20T15:38:34.705Z",
  "networkType": "ethereum",
  "devdoc": {
    "methods": {}
  },
  "userdoc": {
    "methods": {}
  }
}